:020000040000fa
:080000000001040000000000f3
:020000040000fa
:04000800b606000038
:020000040000fa
:04000c00b606000034
:020000040000fa
:04001000b606000030
:020000040000fa
:04001400b60600002c
:020000040000fa
:04001800b606000028
:020000040000fa
:04001c00b606000024
:020000040000fa
:04002000b606000020
:020000040000fa
:04002400b60600001c
:020000040000fa
:040028003c06000092
:020000040000fa
:04002c00b606000014
:020000040000fa
:04003000b606000010
:020000040000fa
:040034003203000093
:020000040000fa
:04003800b606000008
:020000040000fa
:04003c00b606000004
:020000040000fa
:04004000b606000000
:020000040000fa
:04004400b6060000fc
:020000040000fa
:04004800b6060000f8
:020000040000fa
:04004c003605000075
:020000040000fa
:040050005205000055
:020000040000fa
:04005400240600007e
:020000040000fa
:04005800b6060000e8
:020000040000fa
:04005c00b6060000e4
:020000040000fa
:04006000b6060000e0
:020000040000fa
:04006400b6060000dc
:020000040000fa
:04006800500600003e
:020000040000fa
:04006c00b6060000d4
:020000040000fa
:04007000b6060000d0
:020000040000fa
:04007400b6060000cc
:020000040000fa
:04007800b6060000c8
:020000040000fa
:04007c00b6060000c4
:020000040000fa
:04008000b6060000c0
:020000040000fa
:040084006a06000008
:020000040000fa
:040088008c050000e3
:020000040000fa
:04008c001c0600004e
:020000040000fa
:04009000b6060000b0
:020000040000fa
:04009400c80100009f
:020000040000fa
:04009800b6060000a8
:020000040000fa
:04009c00b6060000a4
:020000040000fa
:0400a000b6060000a0
:020000040000fa
:0400a400b60600009c
:020000040000fa
:0400a800b606000098
:020000040000fa
:0400ac00b606000094
:020000040000fa
:0400b000b606000090
:020000040000fa
:0400b400b60600008c
:020000040000fa
:0400b80086060000b8
:020000040000fa
:0400bc00a00600009a
:020000040000fa
:0400c00090020000aa
:020000040000fa
:0400c400b60600007c
:020000040000fa
:0400c800b606000078
:020000040000fa
:0400cc00b606000074
:020000040000fa
:0400d000b606000070
:020000040000fa
:0400d400b60600006c
:020000040000fa
:0400d800b606000068
:020000040000fa
:04010800b606000037
:020000040000fa
:04010c00b606000033
:020000040000fa
:04011000b60600002f
:020000040000fa
:04011400b60600002b
:020000040000fa
:04011800b606000027
:020000040000fa
:04011c00b606000023
:020000040000fa
:04012000b60600001f
:020000040000fa
:04012400b60600001b
:020000040000fa
:040128003c06000091
:020000040000fa
:04012c00b606000013
:020000040000fa
:04013000b60600000f
:020000040000fa
:040134003203000092
:020000040000fa
:04013800b606000007
:020000040000fa
:04013c00b606000003
:020000040000fa
:04014000b6060000ff
:020000040000fa
:04014400b6060000fb
:020000040000fa
:04014800b6060000f7
:020000040000fa
:04014c003605000074
:020000040000fa
:040150005205000054
:020000040000fa
:04015400240600007d
:020000040000fa
:04015800b6060000e7
:020000040000fa
:04015c00b6060000e3
:020000040000fa
:04016000b6060000df
:020000040000fa
:04016400b6060000db
:020000040000fa
:04016800500600003d
:020000040000fa
:04016c00b6060000d3
:020000040000fa
:04017000b6060000cf
:020000040000fa
:04017400b6060000cb
:020000040000fa
:04017800b6060000c7
:020000040000fa
:04017c00b6060000c3
:020000040000fa
:04018000b6060000bf
:020000040000fa
:040184006a06000007
:020000040000fa
:040188008c050000e2
:020000040000fa
:04018c001c0600004d
:020000040000fa
:04019000b6060000af
:020000040000fa
:04019400c80100009e
:020000040000fa
:04019800b6060000a7
:020000040000fa
:04019c00b6060000a3
:020000040000fa
:0401a000b60600009f
:020000040000fa
:0401a400b60600009b
:020000040000fa
:0401a800b606000097
:020000040000fa
:0401ac00b606000093
:020000040000fa
:0401b000b60600008f
:020000040000fa
:0401b400b60600008b
:020000040000fa
:0401b80086060000b7
:020000040000fa
:0401bc00a006000099
:020000040000fa
:0401c00090020000a9
:020000040000fa
:0401c400b60600007b
:020000040000fa
:0401c800b606000077
:020000040000fa
:0401cc00b606000073
:020000040000fa
:0401d000b60600006f
:020000040000fa
:0401d400b60600006b
:020000040000fa
:0401d800b606000067
:020000040000fa
:100200008fd621000e7f22000e0188000000000022
:10021000000020000000e000020032000001200089
:100220002002880014000700140307000000e0000b
:1002300003003a00405e2e0001002000020037005b
:100240000000200001002000810f7000010032003a
:1002500014000700000020000000e000020032004f
:100260000000020000000000dcc3020000000000eb
:100270000040da000000fe004440a9008042220055
:100280000000e0000300320000002000a001880010
:100290004440a800000006008a1f78008b1f7800e9
:1002a0000000060091018800800478000000eb0047
:1002b0001a003700e284440032a0b4009905ba0065
:1002c000e284440032a0b4009906ba00e2844400fb
:1002d00032a0b4000006eb00476fde00fd07b2005d
:1002e000636ce10003003a00ebff07000000eb0045
:1002f0000a003700606ce10004003a00005deb008a
:100300008b05e900fdff3e00040037006168e10055
:10031000010032000086eb000b00070019c7ba008d
:100320001905ba000e04e00003003a000a00e000dc
:10033000e0ff3a0000000600fe07b2009e018800c0
:100340008a047800f5ff3700395dba008b05e900b3
:100350000c003200295dba008b05e900080032006c
:100360000c00e00003003a00e284440032a0b40034
:10037000f5ff370019ddba008b05e900faff3a00f6
:100380008904e800e184440032a0b40000000600c3
:100390003600f800809fbe00829fbe00849fbe0092
:1003a000869fbe000000fa008760a900b01c800094
:1003b000640060000000e0000500320010c0b300df
:1003c00015eab7009643a9006e63a900080037003c
:1003d000b01c8000680060000000e00004003200f3
:1003e00010c0b30016eab7009663a9006e63a900b7
:1003f000b01c8000610060000000e0000b003200d3
:1004000010c0b30017eab7009603a900711c800062
:1004100000082000008060000000e00001003200c1
:10042000474a07008ee3a9000e003700b01c800089
:10043000620060000000e0000a00320010c0b3005b
:1004400018eab7009623a900f11b800000082000dd
:10045000008060000000e00001003200384a070020
:100460007ee3a900b11c80000040200000806000f5
:100470000000e000030032009743a90010c0b30061
:1004800022eab700b11c800000202000008060003c
:100490000000e000030032009723a90010c0b30061
:1004a00021eab700b11c800000002100008060003c
:1004b0000000e000030032009783a90010c0b300e1
:1004c00024eab700b11c800000802000008060009a
:1004d0000000e000030032009763a90010c0b300e1
:1004e00023eab700b11c80000000220000806000f9
:1004f0000000e0000300320097a3a90010c0b30081
:1005000025eab7000080fa004f03be004f02be008c
:100510004f01be004f00be003600f900004006004b
:10052000809fbe000000fa0088c0a900b0228000b1
:10053000640060000000e0000500320010c0b3005d
:100540001aeab7005644a9002e64a9000800370033
:10055000b0228000680060000000e000040032006b
:1005600010c0b3001beab7005664a9002e64a900ae
:10057000b0228000610060000000e0000600320050
:1005800010c0b3001ceab7005604a9007022800016
:100590004ee4a90008003700b0228000620060002d
:1005a0000000e0000400320010c0b3001deab700f4
:1005b0005624a9003ee4a900b1228000004020009a
:1005c000008060000000e000030032005744a900f2
:1005d00010c0b30029eab700b1228000002020003b
:1005e000008060000000e000030032005724a900f2
:1005f00010c0b30028eab700b1228000000021003b
:10060000008060000000e000030032005784a90071
:1006100010c0b3002beab700b12280000080200098
:10062000008060000000e000030032005764a90071
:1006300010c0b3002aeab700b122800000002200f7
:10064000008060000000e0000300320057a4a90011
:1006500010c0b3002ceab7000080fa004f00be00c3
:1006600000400600809fbe00829fbe00849fbe00a7
:10067000869fbe000000fa00701680004200de0077
:10068000614060008080fb00e0462100104078005f
:100690000080fb00808f500006003a00304b800045
:1006a000414b800061004000e0804800304b8800f2
:1006b000414b880066c8bf000004e0000300320020
:1006c00066c8bf000040e90066e8b700f04a800055
:1006d000014b8000e00f5000e08f58000600320010
:1006e000f04a8000014b800061004000e08048003b
:1006f000f04a8800014b88000440800015408000cb
:10070000f0a3800001a48000420620000289b90005
:10071000020178006003b9008601780003014100fe
:10072000430620000300b800010141008200780068
:1007300012c0b300800f5200818f5a0001003100b7
:100740000041eb0061004200e0804a000040880068
:10075000114088000204e00012003200225780009d
:10076000335780005000200001002000800f51000e
:10077000818f59000b003200f0a3800001a480009b
:10078000e00f5000e08f5800060032000028ef0014
:100790000228ef00100020000100200020578800f0
:1007a000315788002440800035408000d0a380006d
:1007b000e1a38000420620000289b900020178000e
:1007c0006003b90086017800030141004306200060
:1007d0000300b800010141008200780012c0b3009c
:1007e000800f5200818f5a00010031000041eb0060
:1007f00061004200e0804a002040880031408800cb
:100800000204e0001200320062578000735780003b
:100810005000200001002000800f5100818f5900fe
:100820000b003200d0a38000e1a38000e00f500055
:10083000e08f5800060032000428ef000628ef0081
:1008400010002000010020006057880071578800c8
:1008500090498000a1498000e00f5000e08f5800cf
:100860000600320090498000a149800061004000ec
:10087000e080480090498800a1498800e04d800050
:10088000f14d8000e00f5000e08f5800060032006c
:10089000e04d8000f14d800061004000e0804800a4
:1008a000e04d8800f14d8800e24d8000f34d80005e
:1008b0000071220001002000800f5100818f59003b
:1008c00005003600bc29ef00be29ef00f05d2100d5
:1008d0008040eb0001487800e149800000102000d2
:1008e000008060000000e00013003200f05780003c
:1008f00001588000524a8000634a800014c0b3004f
:10090000820f5000838f5800010031000042eb003d
:1009100061004000e0804800f057880001588800de
:100920000404e000040032003ce9a800fe2aef00c5
:10093000002bef003d09a900104b8000214b8000e7
:10094000724a8000834a800014c0b300820f5000b6
:10095000838f5800010031000042eb00610040002d
:10096000e0804800104b8800214b88000404e00020
:10097000040032006229ef006429ef0010c0b300c8
:1009800052e9b700905780000000e00030003200cc
:10099000905780000000e900905788009057800031
:1009a0000000e0002a003a00803e200090578800b6
:1009b000a08a2000900090000110a0001100980073
:1009c00000488000610060000000e000100032007c
:1009d000104880000000e90010488800104880009e
:1009e0000000e0000a003a00004880000000a1007a
:1009f00000488800004880000010a00000488800df
:100a0000a08a2000b00090000150a00031009800a2
:100a100020488000610060000000e0000c0032000f
:100a2000304880000000e9003048880030488000ed
:100a30000000e00006003a00204880000000a1000d
:100a400020488800204880000010a000204888002e
:100a50008460a9000080fa004f03be004f02be0070
:100a60004f01be004f00be0000400600801f78000e
:100a70000000fa0070108000620060000000e000da
:100a8000010032000e22a900901080000040780082
:100a90000ae8b7008520a9000080fa004f0078001e
:100aa00000400600809fbe000000fa00a08a2000df
:100ab000900078000100a0000108780020c8bf0065
:100ac0000004e00010003200118220009140780004
:100ad00020c8bf0080cf50000a00310021c8bf00ed
:100ae0000080fb0041d62000614078000080fb00c0
:100af0008010880021c8bf000040e80021e8b7004e
:100b0000010037002068ef008540a9000080fa004e
:100b10004f00be0000400600809fbe00829fbe00c6
:100b20000000fa00c0108000620060000000e000d9
:100b3000010032001822a900c0108000640060008b
:100b40000000e00037003a00c0108000680060003c
:100b50000000e00033003a00e01080000040780020
:100b60006ae9b70038c9bf000004e00021003a007c
:100b7000a196200091407800d0c5b30080cf5000ee
:100b800007003a00b0498000e10f500004003a002d
:100b900010c0b30038e9b7003629ef001500370060
:100ba000b0498000e10f500009003a0039c9bf0088
:100bb0008080fb00a396200093417800c23621007c
:100bc00003f178000040e80039e9b7000900370078
:100bd000a196200091407800b0c5b30080cf5000ae
:100be00004003a003969ef003869ef001000200076
:100bf000b0498800a19620009140780050c5b3000c
:100c000080cf500001003a003ca9a8009193200039
:100c10009140780070ccb30080cf500001003600c6
:100c20003969ef008700a9000080fa004f01be007b
:100c30004f00be00004006000000fa008720a90017
:100c40000080fa0000400600809fbe000000fa000d
:100c5000a08a2000900078000160a00001087800c0
:100c600000148000904088008560a9000080fa0090
:100c70004f00be0000400600801f78000000fa0010
:100c800020048000610060000000e00001003200ec
:100c90008400a9000080fa004f00780000400600a0
:100ca000801f78000000fa003004800061006000be
:100cb0000000e000040032000bc8bf000040e80064
:100cc0000be8b7008600a9000080fa004f0078000a
:100cd00000400600809fbe000000fa003104800042
:100ce00000082000008060000000e00004003200e6
:100cf0000bc8bf000040e8000be8b70086e0a90081
:100d00000080fa004f00be0000400600801f7800ff
:100d10000000fa0040048000700060000000e00065
:100d2000040032000bc8bf000040e8000be8b70029
:100d30008880a9000080fa004f007800004006007b
:100d4000809fbe000000fa004104800000022000e5
:100d5000008060000000e0000100320088a0a900cf
:100d60000080fa004f00be00004006000040da009c
:100d70000000fe000a00fa00e20f500034003e00be
:100d800030eb8000e10f500003003200e20f500012
:100d900011003a000c003700c32020000300e000df
:100da00001003a000040da000c02e20002003500c7
:100db0001422ef000de2a8000f42ab000d003a0034
:100dc0000f42a8000b003700632120000300e00061
:100dd00001003a000040da001602e200020035008d
:100de0001e22ef0017e2a8001942ab0001003a00f2
:100df0001942a800820178000b0037003102fb0085
:100e0000e10f500004003a000f22ab00feff3a0051
:100e100084108800030037001922ab00feff3a005f
:100e2000d41088008301e9000300e000f3ff3a00da
:100e3000e10f500003003a000f02ab00feff32004a
:100e40000b0037001902ab00feff3200080037002c
:100e500033002000b3bf9f00c0bf9f00d1bf9f00e1
:100e6000e2bf9f006a805700be0507006fb9970078
:100e7000020078000080fa00000006000000050073
:100e800003f0a200889fbe008a9fbe008c1f7800de
:100e90002a010700310133006450e1004f003200a5
:100ea0006420e1005200320003826c0007003b0026
:100eb0000905d0000306d000820f54000c065d0027
:100ec0000200390002003200890178000306780030
:100ed0008582550004003d000003fd008103fd00f4
:100ee0008502ea008b854200840f720002003b00fd
:100ef00060001000e08018006011b8000005eb00f1
:100f00007a28e1000a00390006007800c75ddd009c
:100f1000f707b200878075002d00370082817100cd
:100f20000a017800610560008180d1000080d30053
:100f30008502e900f9ff3b00060440008784480071
:100f400002003b0060041400e0841c000988a30038
:100f5000070032008a8171008281710061016400a2
:100f60008904d1000884d3008b05e80017003700fe
:100f70000978a30013003a000b00e00013003400ce
:100f80008b05e9000804440089844c000a4474007d
:100f90000978a3000d003a000b00e00007003400c0
:100fa0008b05e9000804440089844c0001003a00e4
:100fb0000b0020000978a300f7ff32000001eb00ce
:100fc00002003700828171000a017800a00007004a
:100fd0000cf0a70001f0a000e90037006420e10058
:100fe00002003a00838f6c00e90033000801be0064
:100ff0000200be00e2003700889fbe008a9fbe004c
:101000008c1f7800cd000700d400330003866c00ed
:101010006450e1002e0032006420e1003300320011
:101020006150e1002f0032006120e1003100320008
:1010300085855500eb07b00009002000080420005a
:10104000050037000804440089844c000a00310080
:101050000603430087834b000001530081815b003e
:10106000f8ff33000203be000800a000080444009b
:1010700089844c00f6ff3900c639dd008301730016
:1010800001003200130020008904d1000884d3003d
:101090000998a300050032000800a7000300a00083
:1010a0008904d1000884d3008b05e8008904d100ad
:1010b0000884d3000001eb000281d2006400070025
:1010c00001f0a1000cf0a70001f0a000ac00370077
:1010d0006420e100ae0032000801be000200be0044
:1010e000f7ff37006120e100a90032006000b8007e
:1010f000f3ff37000000200001f82700f0ff370061
:10110000839f68000100e00002003d0060001000c5
:10111000e08018000300e00002003d0060011100c3
:10112000e0811900d10007004f00e00002003b0001
:1011300060001000e080180000000600140020008d
:10114000dd003700f4ff2f00db0037000001be0098
:10115000650007000470a70003f0a1006509b10055
:10116000160032000d0035006828e1000600350049
:10117000f0ff2f00f1ff27000300e00013003b0009
:1011800001002800000005000000400081804800a8
:101190008502e900fcff3a0008003700f88f4200a2
:1011a00002003c008000eb00000005008100d1003f
:1011b0000080d3008502e800fcff3a000300e00055
:1011c00002003b0060001000e080180000000600f4
:1011d0000001be00440007000470a70003f0a10056
:1011e00003f8a30013003a006509b10010003200b3
:1011f000090035006928e1000200350001002800df
:101200000000050000004000818048008502e900e0
:10121000fcff3a0000000600f88f42000500350090
:101220008100d1000080d3008502e800fcff3a0075
:10123000000006008000eb00000005004f89de0082
:1012400082017800b70037006011b800c500370090
:1012500081002000618055000b003d000b00200044
:1012600061fe2f000100e1001d0034008281710049
:10127000610164008904d1000884d3000000e80003
:10128000faff3a0071002000610064000300700062
:10129000020060000900320061044400e0844c0058
:1012a0000988a500050032008b05e8006808e10008
:1012b00002003a008904d1000884d300f20f200014
:1012c0000258e10005003d00c75ddd00f907b200ee
:1012d0008980750008007800000006000bf82700e0
:1012e0008b00780000000500c70ade00f107b2009d
:1012f000f50fb20008003200e1cf420002003200d8
:101300000170a00024000500810f70000100320070
:101310000408050044000500810f700002003a0037
:10132000140005008502e9000000400081c048006b
:10133000fcff3b000170a000240005000004be007b
:10134000e9ff07000003be000405be000200be0066
:10135000e5ff0700844f7500000006000200be0094
:101360006450e100050036006420e1000200360010
:101370000968a30001003a000800be000160a00057
:101380004f0678004f05be004f04be000000060067
:10139000f0ff2f00f1ff2700f9ff3700889fbe0004
:1013a0008a9fbe008c1f7800e4ff0700ebff33002c
:1013b00003866c006450e100240032006420e100e8
:1013c000270032006150e100220032006120e1007c
:1013d000210032008b854200eb07b1000134b800d8
:1013e000003ab8000804420089844a00013ab80073
:1013f0000030b8008880400009014a000400330032
:101400000000400081804800020149008b05e9008e
:10141000c909dd00830170000100320013002000c3
:10142000c814de004814dd004709de001200b200d7
:10143000c808de000884700085ff070001f0a100e5
:101440000cf0a70001f0a000cdff37006120e10003
:10145000cfff32000801be000200be00f7ff3700d8
:101460006150e100fcff3a00c9ff37006022b8007c
:10147000060220000000d0008180d2000482d20049
:101480008582d2000000a0000202520083825a002e
:10149000030031000202420083824a000000a100e2
:1014a0000603e900f3ff3a0000000600efff070023
:1014b0000400be0000000600889fbe008a9fbe0098
:1014c000841f78009dff07004f0078001100330053
:1014d000f0ff2f00838f6c0006003b0004056500c1
:1014e0000a00a7000800370009f0a600100020003d
:1014f00008003700820f5400838f5c00030039001e
:101500001000200001003e000000200009f0a700ac
:101510000000ea004f05be004f04be000000e000de
:1015200000000600881f7800030478000300e00034
:1015300007003d0060001000e08018006001190005
:10154000e081190002003b0001f02d00030037008c
:101550000400070008f0a70001f0a0004f04780085
:1015600000000600889fbe008a9fbe0000827000b7
:101570000402710004827100260032000004be00e3
:101580000200be006011b8006b0920009502200027
:101590000182cf000a0039000541b1000082cf006e
:1015a000070039000541b1000982cf00040039006d
:1015b0000541b1000882cf00010039000541b100aa
:1015c00005425200120032000a003b008281710085
:1015d000610164008100d1000080d3008984d300c0
:1015e0000884d3008b05e8000442e800f7ff3a00c6
:1015f000070037000804440089844c0000004800bc
:10160000818048008b05e9000442e900f9ff3a00b7
:101610000fff07004f05be004f04be00000006008c
:1016200080007800010078003041780003c2b300e8
:10163000834f5100faff3200e94f5100f8ff3200aa
:10164000edc14100834f510003003a008000780053
:1016500013c0b300050037008041eb00b4c2b300f3
:10166000844f510001003a00800078000000eb0038
:10167000020037006a02b900040041003101fb009a
:101680000203b100e90f5100faff36000304e00045
:10169000010032000000ea0000000600889fbe0042
:1016a0008a1f7800304478008004780001c2b300bb
:1016b000814f5400fbff3200e94f5400f9ff320024
:1016c000d0c2b300804f540003003a003944780080
:1016d0001ac0b300050037000045eb00b0c2b300ec
:1016e000804f540001003a00394478006000b8008f
:1016f0000a003700a2002000030020009b0307001f
:1017000002cdb300024144000281fb008001eb00e6
:101710000200400083804800394478000881fb00c3
:101720000203b100e90f5100f2ff36000a04e000a5
:101730000200320060001000e08018004f057800c1
:101740004f04be0000000600800178000200370050
:10175000b15978000201e9000200e000fcff3a0004
:101760000000060080017800808f500009003100e1
:1017700002824000800f520006003600840178008b
:1017800082004000c36078000201e900fdff3a00da
:10179000000006000200e00003003200b1597800aa
:1017a0000201e900fbff370000000600800178001d
:1017b00002003700815978000201e9000200e000d0
:1017c000fcff3a00000006000a003700b041780034
:1017d0000304e000030032000201e900b1cf510030
:1017e000040032008381fb001480fb000080510064
:1017f00000000600010278000200e000f3ff3a005a
:101800000000050080017800060037000201e900b1
:10181000b142780085597800030278000504e000a1
:1018200006003200030278000200e000f7ff3a00f1
:1018300002003700005aeb000201e9000200e0005c
:10184000fcff3a00000006000c00fa00889fbe0072
:1018500000047800f0ff2700d0bf9f008004eb0059
:1018600099bf9f0088bf9f00a8bf9f00200c200049
:10187000b0bf9f0078815700cfb0970070805700ad
:10188000100007000fb89700094878008fb897003c
:10189000088050004f04be000080fa0000000600df
:1018a000d0019000028151004240a90003003400a1
:1018b00010017800014978000208e8000100780072
:1018c00000000600f6874700889fbe008a9fbe0082
:1018d0008c9fbe008e1f780000057800a1b79f0086
:1018e000020778008004eb0090023700afb0970049
:1018f0008100e800a1b79f0051c2b300814f5000a2
:1019000003003a00afb097000004eb00110037006d
:10191000ba0090000000fb000168a300070032003d
:1019200009017800800078000a007800dcff0700d9
:101930000000e00005003a007c0237008a007800d1
:1019400086020700e10f4000780232008904e800b7
:10195000760237000100780031417800d3c2b3002d
:10196000834f51000c00320007003c00edc15100d4
:10197000834f51000a003200ebc14100834f5100f8
:101980000d003a000800370003c3b300834f510035
:1019900009003a00060037000830a000edff3700cc
:1019a0000800a000ebff37000810a000e9ff370097
:1019b0000820a000e7ff37000818a300010032004c
:1019c0000800a1000838a300010032000820a1008f
:1019d0008200fb000103b100e98f50000c003e00c3
:1019e000000178008000eb006a08b900b201fb003a
:1019f0000303b10080804100020078009201fb00e7
:101a00000303b100e98f5100f7ff360006003700ed
:101a10008000eb00a3c2b300834f510002003a00e4
:101a2000ce0078000000e8008005eb00e2c2b300c1
:101a3000904f110009003a0008e0a00064415100f5
:101a4000d04f11000300320000017800010278003d
:101a500006003700ce0578000000e800000178009d
:101a6000090037006a58b9008085410002007800fb
:101a7000b201fb000303b100e98f5100f9ff36000a
:101a800084007800f5ff370032407800a2b79f004d
:101a9000c3c6b300834f5000250032000f003c0046
:101aa00032c6b300824f50008800320004003c0070
:101ab0000004e000220232006b4151000f003700a9
:101ac00042c6b300824f500017003200654141000a
:101ad000824f500094003a001300370032c7b30021
:101ae000824f50001b00320007003c00644151004f
:101af000824f5000100032000241e800824f500037
:101b000089003a000f00370052c7b300824f5000df
:101b10008a00320063414100824f500082003a0047
:101b2000e0df9f0009003700e0df9f0085003700fd
:101b30000840a000d4ff3700e0df9f000860a0004d
:101b400080003700e0df9f000850a0000870a00070
:101b50007c003700e0df9f004e0078000006780030
:101b60000000e00001003a000ccc21000c017800dc
:101b70000000eb00010037000000e800e2417800bf
:101b80000304e000fcff3a00800678000b00e00050
:101b9000030032008d8f5500010031008b06780064
:101ba0008005eb008d8f5000010036008d855000c0
:101bb000680464002a003a00110037003a009000df
:101bc0000068a3000700320009017800010220002c
:101bd0000a00780032ff07000000e00006003a002b
:101be000060037008a00780000022000db010700b1
:101bf000e10f4000010032008904e8008b05e90094
:101c00000b00e000edff3a008085eb001400370088
:101c10003a0090000068a300090032000c00780030
:101c2000b000fb0000067800090178000a00780087
:101c30001bff07000000e00008003a000800370022
:101c40008c0078003100fb00010678008a007800e3
:101c5000c2010700e10f4000010032008904e800e2
:101c60000d0078008006e9000000e000e8ff3a007f
:101c70000800e000ad013200110037003a0090008a
:101c80000068a3000700320009017800010220006b
:101c90000a00780002ff07000000e00006003a009a
:101ca000060037008a00780000022000ab01070020
:101cb000e10f4000010032008904e8008b05e900d3
:101cc0000b00e000edff3a00980137004e0178006c
:101cd000cf91de00c81ade004818dd004812de0091
:101ce00004027000e4df9f000848a30008003200ef
:101cf0000404e00006003200e14f4200040032001c
:101d0000f4df9f0082e79f002d00200002003700d3
:101d1000f2df9f001d002000e2fd2f000f014100b7
:101d20000206e80099ff3700e0df9f00ecfd2f007e
:101d30000f0646001d00200094ff3700e0df9f00e3
:101d4000080cb30008017800020cb20070006400b7
:101d50000200e0000d003a000000e0000200320046
:101d60004e06be00020037004e067800cfe6de00c9
:101d7000e00f5600e08f5e000a003d003800b3001f
:101d800060061600e0861e00060037000000e00036
:101d9000020032004e06be00020037004e067800f8
:101da0008006eb000b00e00005003a008c85760011
:101db0000bf0a7008b05ea008b05e900cf5dde0084
:101dc00088017800030cb200e3b79f0000042000f4
:101dd000808f51002300320003003c000300e0002c
:101de000080032002d003700000820006fb2970075
:101df000800f52000d003200000c2000800f5200b6
:101e000026003a0082cc210010c0b30064014100da
:101e1000b20f5600a28f5e001f0039000040e8009c
:101e2000ea4f5000f9ff3a001b00370010c0b30022
:101e30000201200003002000820f5600838f5e0005
:101e400015003900441add00cc11de008301720058
:101e50004411dd000040e800e84f5000f6ff3a0072
:101e60000d00370010c0b3008200200003002000e6
:101e7000820f5600838f5e0007003900431add0091
:101e8000cd11de00830172004311dd000040e80047
:101e9000eb4f5000f6ff3a00e0df9f006fd997004c
:101ea0000200fb008b0f500002003d00ebdf9f00a3
:101eb00003003700808f550001003d008005780049
:101ec0000100e00003003200630064000100320002
:101ed0008100e90008e8a300050032008b8f500064
:101ee000020034008b805000010037008000eb00be
:101ef000efd997000300fb000002eb00d4b79f006e
:101f0000808f50000200340000805000d0b79f0046
:101f10000828a30040003200610164000818a300f3
:101f20000f0032003a0090000068a3000600320063
:101f3000b10220000200e000010032008180e800d0
:101f4000090178000d003700b00220000200e00017
:101f5000010032000080e8008a0078000e0037009f
:101f60000200e000100032003a0090000068a30078
:101f70000700320009017800010220000a00780001
:101f800047fe07000000e00006003a0006003700a8
:101f90008a00780000022000f0000700e10f4000f6
:101fa000010032008904e8005fb097000000e00003
:101fb0005a003200bcb79f00cdb79f008006780062
:101fc0003a0090000068a300070032000901780081
:101fd000010320000a00780031fe07000000e00045
:101fe00006003a00060037008a007800000320004f
:101ff000da000700e10f4000010032008904e80028
:102000008d06e900eeff3a00ddb79f003fb697006e
:10201000cfb6970041003700dfb197000300e00022
:102020001a0032000838a30018003a00bcb79f001d
:10203000cdb79f00830678003a0090000068a300a7
:102040000700320009017800010220000a00780030
:1020500013fe07000000e00006003a00060037000b
:102060008a00780000022000bc000700e10f400059
:10207000010032008904e8008d06e900eeff3a0015
:10208000ddb79f003fb69700cfb6970061016400af
:102090000818a3000f0032003a0090000068a30067
:1020a00006003200b10220000200e0000100320010
:1020b0008180e800090178000d003700b00220009f
:1020c0000200e000010032000080e8008a00780091
:1020d0000e0037000200e000100032003a009000cd
:1020e0000068a30007003200090178000102200007
:1020f0000a007800eafd07000000e00006003a0050
:10210000060037008a0078000002200093000700d4
:10211000e10f4000010032008904e8000b03e900f0
:102120006330b90000017800b2b79f004233dd0090
:1021300080cc2100000343008e01780093b79f00fc
:1021400008077800060478005c0037008b05e9007a
:10215000000420006fb29700800f52003800320058
:1021600003003c000400e000080032003e0037009d
:1021700000082000efb09700808f50002000320050
:10218000000c2000808f500037003a000e48a3005a
:10219000100032001802be000401be000c00be0098
:1021a000f4b79f0085bf9f00b0fc0700e0df9f00f1
:1021b0000000fb00cf80de007fb297008fba97004f
:1021c0000401be00e90007000006560081865e009b
:1021d0000700370018017800110009000286d800b6
:1021e000a2002000110009000280d800e1df9f005a
:1021f0006fd997000243b000e2df9f001a0037005a
:10220000f0ca21000e58a30001003200e0c92100ed
:1022100081cc2100810054000c01be008100e90046
:10222000030033008301d1000281d300fbff37009c
:10223000ef006100e0c07800e1df9f000a00370096
:102240000c00be00bfb197008301e900030033001a
:102250008100d1000080d300fbff370067406000a1
:102260000043b000e0df9f00ba0090006fda9700f3
:102270000400fb000168a300070032000901780098
:10228000800078000a00780085fd07000000e0006b
:1022900005003a00050037008a0078002f0007008b
:1022a000e10f4000010032008904e8003fb09700d0
:1022b00063005000b0b79f00640454000b00e000be
:1022c000a2ff3a000e0478001fb797000838a30059
:1022d00016003200dfb097000100e0001300340068
:1022e000010478003a0090000068a3000700320063
:1022f00009017800010220000a00780068fd07004b
:102300000000e00006003a00060037008a0078006e
:102310000002200011000700e10f40000100320020
:102320008904e8000804e900eeff3a002fb19700a5
:1023300012407800e0df9f000004e0006bfd3a00ef
:10234000090078004f0778004f06be004f05be0019
:102350004f04be006f01b10000000600889fbe0060
:1023600001047800b80090008084eb000118a300fd
:102370003a003200180190000198a30002003a00d0
:102380000200e00035003a000190a00031049800fe
:1023900080047800f90fb2000200e00002003a0069
:1023a00028009000000c7800ea8f540005003a00e5
:1023b0000178a30003003a0088007800d0002000d4
:1023c000e6ff070018009000d8009000810f500031
:1023d0000b0032000000e80010049800180078009c
:1023e00009487800000ce80011c0b30000d62100b5
:1023f00001487800ea8f540018003a0005003700c1
:1024000088007800094078001700070080047800f1
:1024100012003700380090000088a3000f0032003f
:1024200018019000a80090004800900051fa0700a1
:1024300098009000810f5000040032003800900096
:102440000003b300300498008084eb000000eb0030
:102450001004980028009000000c78000900780013
:102460004f04be00000006000200fa00889fbe0074
:10247000a0ff9f0001047800380090000068a300ce
:1024800033003a00e200600005003a000003b300a8
:1024900030049800110498000080eb002e003700f3
:1024a000d80490000900e00006003a001200200065
:1024b000e6805700480090002efa070019049800a3
:1024c00023003700a80090000100e00008003a0057
:1024d00031d6210021049800010c78002100200051
:1024e00051049800110498000030a00030049800b6
:1024f00018019000a8009000480090001dfa070005
:10250000280090008080eb0011049800aff897003d
:1025100001487800000ce8002ff89700ea4f5000bf
:102520000b003a00380090000088a3000800320039
:1025300018019000a8009000480090000dfa0700d4
:102540000000eb0010049800a8009000010c780037
:10255000aff897000100fb004f04be000080fa00b6
:102560000000060000c0da0000000600020ab90000
:10257000001bb9000200b800810042008100430046
:042580000000060051
:020000040000fa
:102584001e0000000f0000000f000000000000000b
:10259400000000002a20000020200000202000006d
:1025a4004d4500004e550000202000002020000072
:1025b400202a0000000000000000000000000000cd
:1025c4000000000000000000000000000000000007
:1025d40000000000000000000000000002000000f5
:1025e4000200000000000000000000002a2000009b
:1025f400564f00004c5400004147000045200000a5
:10260400434100004c490000422a00000000000041
:1026140000000000000000000000000000000000b6
:1026240001000000000000000000000000000000a5
:10263400000000000300000003000000010000008f
:102644009e0100002a2000002052000045460000a0
:1026540045520000454e0000434500002031000073
:10266400202a00000023000002000000e215000000
:10267400ee1900000a1a0000020000000005000024
:1026840000000000ad19000000000000040000007c
:102694000400000001000000a20100002a20000044
:1026a400205200004546000045520000454e0000ff
:1026b4004345000020320000202a000000230000cf
:1026c40002000000e6150000fa1900000a1a0000d2
:1026d400030000000005000000000000ad19000028
:1026e40000000000050000000500000001000000db
:1026f400000000002a200000564f00004c54000047
:1027040020420000414300004b550000503f0000b0
:10271400202a00000020000004000000281a000005
:1027240000000000000000000400000000000000a1
:102734000000000000000000000000000200000093
:102744000200000001000000000000002a20000038
:1027540020430000414c0000494200002045000095
:102764004e44000020200000202a00000000000049
:102774000000000000000000000000000000000055
:102784000500000000000000000000000000000040
:10279400000000003f0000000700000000000000ef
:1027a4000000000020200000202000004c4f00000a
:1027b4004144000020430000414c00002020000060
:1027c40020200000000000000000000000000000c5
:1027d40000000000000000000600000000000000ef
:1027e40000000000000000000000000009000000dc
:1027f40009000000060000000b0200002044000055
:1028040045430000494d0000414c000020500000a9
:102814004f4900004e540000202000000023000017
:10282400050000003e090000ee1900001a1a00001d
:10283400070000000001000000000000aa190000c9
:10284400000000003d0000003d0000000600000004
:1028540065000000202000004d410000582d0000bc
:102864004341000050410000434900005459000016
:1028740020200000002300000200000040090000a6
:10288400fa190000f2190000080000000005000019
:10289400000000003e0900000000000008000000e5
:1028a4000800000006000000640000002020000072
:1028b40020520000455300004f4c000055540000c6
:1028c400494f00004e20000020200000002100009d
:1028d40003000000440900008a190000a219000046
:1028e400090000000000000000000000aa19000018
:1028f400000000000b0000002c0000000600000097
:1029040000000000202000002020000043410000bf
:102914004c2000005a450000524f000020200000c7
:102924002020000000000000000000000000000063
:1029340000000000000000000a0000000000000089
:102944000000000000000000000000000c00000077
:1029540030000000060000000000000020200000fd
:1029640020200000434100004c2000005350000090
:10297400414e000020200000202000000000000044
:102984000000000000000000000000000000000043
:102994000b00000000000000000000000000000028
:1029a400000000000d0000003600000006000000da
:1029b4000000000020200000434100004c2d0000d6
:1029c40043410000504100004349000054590000b5
:1029d40020200000000000000000000000000000b3
:1029e40000000000000000000c00000000000000d7
:1029f4000000000000000000000000000e000000c5
:102a04000e0000000600000000000000202000006e
:102a140042410000434b0000555000002043000099
:102a2400414c0000494200003f200000002000000b
:102a340004000000281a000000000000000000004c
:102a44000d00000000000000000000000000000075
:102a540000000000070000000f0000000600000056
:102a6400000000002020000020430000414c000032
:102a740049420000204500004e4400002020000090
:102a84002020000000000000000000000000000002
:102a940000000000000000000e0000000000000024
:102aa4000000000000000000000000004a000000d8
:102ab4001000000000000000000000004745000076
:102ac4004e450000524100004c20000053450000d8
:102ad40054540000494e0000475300000000000019
:102ae40000000000000000000000000000000000e2
:102af4000f000000000000000000000000000000c3
:102b04000000000019000000190000000f00000080
:102b1400f2010000202000002020000044450000b5
:102b240056490000434500002049000044200000ad
:102b340020200000002300000500000034140000e1
:102b4400ee190000fe190000100000000002000051
:102b540000000000aa190000000000003e00000070
:102b64003e0000004a000000810100002020000017
:102b740020200000204d0000494e00002e57000088
:102b8400542000002020000020200000002300002a
:102b94000200000044140000ee1900004009000087
:102ba4001100000000050000000000003e090000c4
:102bb4000000000039000000390000004a00000055
:102bc40085010000202000004c4100005443000017
:102bd40048200000444500004c41000059200000fa
:102be4002020000000230000020000004a1400001e
:102bf400ee1900000e1a000012000000000300008d
:102c040000000000ab1900000000000038000000c4
:102c1400380000004a0000001202000020200000da
:102c2400414e0000474c000045200000434f000087
:102c34004e46000049470000202000000023000009
:102c44000500000052140000ee190000f6190000ff
:102c5400130000000001000000000000aa19000099
:102c64000000000015000000150000004a000000ec
:102c7400000000002020000020430000482e000037
:102c8400204300004f4e000046490000472000004a
:102c9400202000000020000004000000361a00007c
:102ca400000000000000000014000000000000000c
:102cb40000000000000000000000000016000000fa
:102cc400160000004a0000008d01000020200000d2
:102cd400202000005245000044200000474c000022
:102ce4004f57000020200000202000000023000097
:102cf4000200000062140000661400004009000095
:102d04001500000000050000000000003e0900005e
:102d14000000000017000000170000004a00000037
:102d24009101000020200000204100004d420000dd
:102d340045520000204600004c410000534800006a
:102d440020200000002300000200000066140000a0
:102d54006a14000062140000160000000005000060
:102d6400000000003e090000000000001800000000
:102d7400180000004a000000950100002020000017
:102d8400204100004d420000455200002047000051
:102d94004c4f0000572000002020000000230000ba
:102da400020000006a140000ee190000661400001e
:102db4001700000000050000000000003e090000ac
:102dc400000000001c0000001c0000004a0000007d
:102dd4000000000020200000494e00005055000073
:102de400542000004c4f00004749000043200000dd
:102df4002020000000200000040000002c1a000025
:102e040000000000000000001800000000000000a6
:102e14000000000000000000000000001a00000094
:102e24001a0000000f0000007401000020200000c0
:102e3400202000005041000053530000574f000071
:102e44005244000020200000202000000023000045
:102e54000200000038140000ee1900000e1a0000f1
:102e6400190000000003000000000000aa1900007f
:102e7400000000001b0000001b0000000f00000009
:102e8400000000002020000052540000432d0000e8
:102e94005345000054200000444100005445000004
:102ea400202000000020000004000000381a000068
:102eb40000000000000000001a00000000000000f4
:102ec4000000000000000000000000001d000000e1
:102ed4001d0000000f000000000000002020000082
:102ee40052540000432d00005345000054200000bc
:102ef400544900004d45000020200000002000003f
:102f0400040000003a1a0000000000000000000065
:102f14001b00000000000000000000000000000092
:102f2400000000004f0000004f0000004a000000b5
:102f34005c0100002020000020200000432d000040
:102f440046410000435400004f520000202000007e
:102f54002020000000230000020000007014000084
:102f6400ee1900000a1a00001c0000000004000012
:102f740000000000ad190000000000005000000037
:102f8400500000000f0000007801000020520000f3
:102f940053320000333200002d420000415500003e
:102fa400445200004154000045200000002100006c
:102fb400030000003c1400008a190000a21900005c
:102fc4001d0000000000000000000000c619000001
:102fd4000000000010000000100000000f000000be
:102fe400000000002020000053450000545500005c
:102ff400502000002d200000454e00004420000019
:10300400202000000000000000000000000000007c
:1030140000000000000000001e000000000000008e
:103024000000000000000000000000000f0000008d
:10303400200000000000000000000000202000002c
:103044002044000049410000474e00004f53000057
:1030540054490000435300002020000000000000f9
:10306400000000000000000000000000000000005c
:103074001f0000000000000000000000000000002d
:103084000000000021000000210000001f000000db
:10309400000000002020000020200000205200003a
:1030a400415700002041000044430000202000005c
:1030b400202000000020000004000000261a000068
:1030c40000000000000000002000000000000000dc
:1030d40000000000000000000000000022000000ca
:1030e400220000001f00000000000000202000005b
:1030f40020200000204b00004559000050410000f2
:1031040044200000202000002020000000200000b7
:1031140004000000321a000000000000000000005b
:10312400210000000000000000000000000000007a
:103134000000000023000000230000001f00000026
:103144000000000020200000202000002044000097
:1031540049530000504c0000415900002020000059
:10316400202000000020000004000000421a00009b
:103174000000000000000000220000000000000029
:103184000000000000000000000000002400000017
:10319400240000001f0000000000000020200000a8
:1031a400204400004947000049540000414c0000fd
:1031b400204900002f5000002020000000200000c3
:1031c40004000000341a00000000000000000000a9
:1031d40023000000000000000000000000000000c8
:1031e4000000000025000000250000001f00000072
:1031f4000000000020200000204400004947000097
:1032040049540000414c0000204f00002f500000a2
:10321400202000000020000004000000401a0000ec
:103224000000000000000000240000000000000076
:103234000000000000000000000000002600000064
:10324400260000001f0000000000000020200000f5
:103254002020000020200000434f00004d4d0000be
:10326400202000002020000020200000002000007a
:1032740004000000301a00000000000000000000fc
:103284002500000000000000000000000000000015
:103294000000000027000000270000001f000000bd
:1032a40000000000202000002020000052540000f4
:1032b400432d000043480000454300004b2000001c
:1032c400202000000020000004000000441a000038
:1032d40000000000000000002600000000000000c4
:1032e40000000000000000000000000028000000b2
:1032f400280000001f000000000000002020000043
:103304002020000052540000432d0000494e0000cc
:10331400495400002e20000020200000002000005e
:10332400040000003c1a000000000000000000003f
:103334002700000000000000000000000000000062
:10334400000000002a0000002a0000001f00000006
:103354000000000020200000202000005245000052
:10336400535400004f520000452000003f2000004d
:10337400202000000020000004000000541a000077
:103384000000000000000000280000000000000011
:103394000000000000000000000000002a000000ff
:1033a4002a0000001f000000000000002020000090
:1033b4004c4f0000414400002044000045460000fa
:1033c400415500004c540000202000000020000063
:1033d400040000003e1a000000000000000000008d
:1033e40029000000000000000000000000000000b0
:1033f400000000004b0000004b0000001f00000014
:1034040000000000204900004e4900005420000044
:10341400474500004e20000053450000545400006e
:103424002e20000000200000040000002e1a0000de
:1034340000000000000000002a000000000000005e
:103444000000000000000000000000002000000058
:10345400060000001f0000000000000044490000b6
:10346400414700004e4f0000535400004943000000
:1034740053200000454e00004420000000000000de
:103484000000000000000000000000000000000038
:103494002b000000000000000000000000000000fd
:1034a400000000002d0000002d0000000a000000b4
:1034b400d00000002020000043480000312d00000f
:1034c400434100004c2000005a450000524f0000c8
:1034d40020200000002300000200000098140000d7
:1034e400fa190000121a00002c0000000004000069
:1034f40000000000aa190000000000002e000000d7
:103504002e0000000a000000d4000000202000006b
:1035140043480000322d0000434100004c200000cd
:103524005a450000524f00002020000000230000f4
:1035340002000000b4140000fa190000121a00007e
:103544002d0000000004000000000000aa19000083
:10355400000000002f0000002f0000000a000000ff
:10356400d80000002020000043480000332d000054
:10357400434100004c2000005a450000524f000017
:10358400202000000023000002000000d0140000ee
:10359400fa190000121a00002e00000000040000b6
:1035a40000000000aa190000000000004300000011
:1035b400430000000a000000dc000000202000009e
:1035c40043480000342d0000434100004c2000001b
:1035d4005a450000524f0000202000000023000044
:1035e40002000000ec140000fa190000121a000096
:1035f4002f0000000004000000000000aa190000d1
:103604000000000031000000310000000b00000049
:10361400e40000002020000043480000312d000099
:10362400434100004c20000053500000414e000074
:103634002020000000230000020000009c14000071
:1036440094140000121a000030000000000400006e
:1036540000000000aa190000000000003200000071
:10366400320000000b000000e800000020200000f1
:1036740043480000322d0000434100004c2000006c
:1036840053500000414e00002020000000230000a1
:1036940002000000b8140000b0140000121a000068
:1036a400310000000004000000000000aa1900001e
:1036b4000000000033000000330000000b00000095
:1036c400ec0000002020000043480000332d0000df
:1036d400434100004c20000053500000414e0000c4
:1036e400202000000023000002000000d414000089
:1036f400cc140000121a0000320000000004000084
:1037040000000000aa1900000000000044000000ae
:10371400440000000b000000f00000002020000026
:1037240043480000342d0000434100004c200000b9
:1037340053500000414e00002020000000230000f0
:1037440002000000f0140000e8140000121a000047
:10375400330000000004000000000000aa1900006b
:103764000000000035000000350000000c000000df
:10377400000100002020000043480000332d000019
:1037840043410000504100004349000054590000e7
:10379400202000000023000002000000d8140000d4
:1037a400fa19000040090000340000000005000080
:1037b400000000003e090000000000004500000079
:1037c400450000000c00000004010000202000005f
:1037d40043480000342d00004341000050410000e4
:1037e4004349000054590000202000000023000039
:1037f40002000000f4140000fa190000400900005f
:103804003500000000050000000000003e09000033
:103814000000000037000000370000000c0000002a
:10382400f80000002020000043480000312d000073
:103834004341000050410000434900005459000036
:10384400202000000023000002000000a01400005b
:10385400ee190000161a00003600000000020000f5
:1038640000000000aa19000000000000340000005d
:10387400340000000c000000fc00000020200000c8
:1038840043480000322d0000434100005041000035
:103894004349000054590000202000000023000088
:1038a40002000000bc140000ee190000161a00000b
:1038b400370000000002000000000000aa19000008
:1038c4000000000042000000420000004a00000026
:1038d400000000002050000045520000494f000045
:1038e4004449000043200000544900004d450000b5
:1038f4005220000000200000040000005c1a0000b8
:10390400000000000000000038000000000000007b
:103914000000000000000000000000001300000090
:10392400130000004a0000000d02000020200000e7
:103934004c4100005443000048200000574500005b
:1039440049470000485400002020000000230000e4
:10395400020000004e14000044140000400900005e
:103964003900000000050000000000003e090000ce
:10397400000000003b0000003b00000028000000a5
:103984000000000020200000202000002020000073
:103994004c4f000041440000202000002020000083
:1039a4002020000000200000040000002a1a00006b
:1039b40000000000000000003a00000000000000c9
:1039c4000000000000000000000000003a000000b9
:1039d4003a00000028000000000000002020000041
:1039e40020200000205600004f4c000054410000ed
:1039f4004745000020200000202000000020000097
:103a0400040000002a1a000000000000000000006a
:103a14003b00000000000000000000000000000067
:103a2400000000004e0000004e0000001f000000d7
:103a34000000000020470000505200005320000006
:103a44005245000043200000524500005345000049
:103a5400542000000020000004000000481a000068
:103a640000000000000000003c0000000000000016
:103a74000000000000000000000000000a00000038
:103a84000a00000006000000f601000020200000eb
:103a94002020000020200000554e00004954000062
:103aa4002020000020200000202000000021000031
:103ab4000300000049090000ee190000fa19000093
:103ac4003d0000000000000000000000aa190000f2
:103ad4000000000012000000120000004a00000074
:103ae40014020000204e00004f2e00004f4600003c
:103af40020530000414d0000504c0000455300008d
:103b040020200000002300000500000048140000ed
:103b1400221a00001e1a00003e00000000030000ec
:103b240000000000aa190000000000000f000000bf
:103b34000a00000000000000000000002020000037
:103b4400414e0000474c0000452000004341000066
:103b54004c4900004220000020200000000000002a
:103b64000000000000000000000000000000000051
:103b74003f00000000000000000000000000000002
:103b84000000000014000000140000004a000000bf
:103b94000302000020200000202000004f560000f7
:103ba40045520000204c00004f410000442000001a
:103bb4002020000000230000020000005814000030
:103bc400441400004009000040000000000500000b
:103bd400000000003e090000000000003900000061
:103be400390000000f000000070200002020000040
:103bf40020420000554300004b45000054200000c3
:103c04005754000020200000202000000023000062
:103c14000200000066140000441400004009000083
:103c24004100000000050000000000003e09000003
:103c3400000000004f0000004f0000004a00000098
:103c440000000000204d00004f420000494c0000dd
:103c5400452000004f500000455200004154000030
:103c64004f5200000020000004000000461a00002b
:103c740000000000000000004200000000000000fe
:103c840000000000000000000000000047000000e9
:103c9400470000000a000000e000000020200000af
:103ca40043480000352d0000434100004c20000033
:103cb4005a450000524f000020200000002300005d
:103cc4000200000008150000fa190000121a000092
:103cd400430000000004000000000000aa190000d6
:103ce4000000000048000000480000000b00000035
:103cf400f40000002020000043480000352d00009f
:103d0400434100004c20000053500000414e00008d
:103d14002020000000230000020000000c15000019
:103d240004150000121a0000440000000004000002
:103d340000000000aa190000000000004900000073
:103d4400490000000c0000000801000020200000d1
:103d540043480000352d000043410000504100005d
:103d640043490000545900002020000000230000b3
:103d74000200000010150000fa19000040090000bc
:103d84004500000000050000000000003e0900009e
:103d9400000000003c0000003c0000001f00000088
:103da4000000000020200000564f00004c5400008a
:103db4004147000045200000494e000049540000de
:103dc4002020000000200000040000004a1a000027
:103dd4000000000000000000460000000000000099
:103de4000000000000000000000000002c000000a3
:103df4002c0000000a0000004f05000020200000f5
:103e040043480000362d0000434100004c200000d0
:103e14005a450000524f00002020000000230000fb
:103e24000200000024150000fa190000121a000014
:103e3400470000000004000000000000aa19000070
:103e44000000000030000000300000000b00000003
:103e5400530500002020000043480000362d0000d8
:103e6400434100004c20000053500000414e00002c
:103e7400202000000023000002000000281500009c
:103e840020150000121a0000480000000004000081
:103e940000000000aa190000000000003600000025
:103ea400360000000c000000570500002020000030
:103eb40043480000362d00004341000050410000fb
:103ec4004349000054590000202000000023000052
:103ed400020000002c150000fa190000400900003f
:103ee4004900000000050000000000003e09000039
:103ef400000000001f000000380000000000000067
:103f04000000000020410000505000002e2000005e
:103f14005345000054540000494e0000475300002c
:103f2400202000000000000000000000000000004d
:103f340000000000000000004a0000000000000033
:103f44000000000000000000000000003c00000031
:103f54003c0000001f000000000000002049000099
:103f64004e49000054200000415000005020000041
:103f740053450000545400002e200000002000008f
:103f840004000000521a00000000000000000000bd
:103f94004b000000000000000000000000000000d2
:103fa400000000004d0000004d0000001f00000054
:103fb40000000000204c0000415300005420000089
:103fc40054410000524500002044000041540000c8
:103fd400452000000020000004000000501a0000ea
:103fe40000000000000000004c0000000000000081
:103ff4000000000000000000000000004600000077
:10400400460000001f00000000000000204c0000db
:104014004153000054200000434100004c200000a4
:10402400444100005445000020200000002000000e
:10403400040000004e1a0000000000000000000010
:104044004d0000000000000000000000000000001f
:10405400000000002b0000002b0000001f000000e7
:1040640000000000202000004750000052530000d0
:104074002044000049530000504c00004159000006
:10408400202000000020000004000000581a000056
:1040940000000000000000004e00000000000000ce
:1040a40000000000000000000000000054000000b8
:1040b400540000004a00000000000000202000001e
:1040c40020200000434f00004d2000004d4f000011
:1040d40044450000202000002020000000200000b3
:1040e400040000005a1a0000000000000000000054
:1040f4004f0000000000000000000000000000006d
:10410400000000001e0000001e0000000f00000060
:10411400e409000020200000434100004e2d00006f
:104124004249000054200000524100005445000060
:1041340020200000002100000300000040140000c3
:104144008a190000a61900005000000000000000b9
:1041540000000000e219000000000000520000000e
:10416400520000004a000000e8090000204300005b
:10417400414e000020440000554d00005020000036
:10418400544900004d450000202000000023000099
:10419400020000007a140000ee190000061a000064
:1041a400510000000004000000000000ab190000f2
:1041b4000000000054000000540000004a00000009
:1041c400ec090000204800004d4900002044000094
:1041d400554d000050200000544900004d4500009a
:1041e4002020000000230000020000007e140000d4
:1041f400ee190000061a000052000000000400003e
:1042040000000000ab1900000000000038000000ae
:104214004a0000004a0000000000000020410000a5
:10422400505000002e20000053450000545500005b
:10423400502d0000454e0000442000000000000006
:10424400000000000000000000000000000000006a
:104254005300000000000000000000000000000007
:104264000000000053000000530000004a0000005a
:1042740000000000204d00004f420000494c0000a7
:10428400452000004e5500004d42000045520000fc
:104294002020000000200000040000005e1a00003e
:1042a40000000000000000005400000000000000b6
:1042b40000000000000000000000000000000000fa
:1042c40000000000000000000000000000000000ea
:1042d40000000000000000000000000000000000da
:1042e40000000000000000000000000000000000ca
:1047e400000000002020000020200000202a0000fb
:1047f4004d4500004e5500002a20000020200000f6
:1048040020200000002000002020000020200000c4
:104814002020000020200000202000002020000094
:10482400202000002000000025300000366c00002d
:10483400750000002020000020200000202000003f
:104844002020000020200000456e0000616200006e
:104854006c650000202000002020000020200000c3
:104864002020000020440000697300006162000001
:104874006c65000000250000303600007500000063
:104884002020000020200000202000004c4f0000c9
:1048940041440000202000002020000020200000cf
:1048a4002020000020200000204100004e4700008e
:1048b4004c450000202000002020000020200000a3
:1048c4002020000020200000205600004f4c000053
:1048d4005441000047450000202000002020000033
:1048e400002000002020000020200000475000008d
:1048f40052530000204d00004f440000554c00006e
:10490400452000002020000020200000202000007e
:104914002020000050520000494e00005445000081
:104924005220000020200000202000002020000051
:10493400204800004d49000020440000415400007c
:10494400410000004f500000312d000020200000e5
:104954002020000020200000202000002020000053
:1049640020200000002000004c3100002d20000019
:10497400204c0000322d0000202000004c330000a9
:104984002d2000002000000020490000312d0000ef
:10499400202000002020000020490000322d0000cb
:1049a4002020000020200000004f00004e200000c6
:1049b400004f0000464600000020000020200000b8
:1049c400204d0000454e0000552f000045530000c7
:1049d40043200000202000002000000020200000d0
:1049e400204500004e540000455200002f540000a2
:1049f400415200004520000020200000002000005b
:104a0400202000002020000020200000555000003d
:104a140020200000202000002020000020000000b2
:104a24002020000020200000202000004c45000031
:104a34004654000020200000202000002020000018
:104a44000020000050720000657300007320000015
:104a5400616e0000792000006b6500007920000081
:104a640020000000204400006f200000796f000047
:104a740075200000776100006e740000207400004f
:104a84006f20000000200000206600006c61000020
:104a9400736800002061000067610000696e000017
:104aa4003f200000200000002534000064000000c6
:104ab4002020000020410000444300002043000067
:104ac4004f5500004e5400005320000020200000e9
:104ad40000200000202000002020000020410000d1
:104ae4006e6700006c65000020200000202000009c
:104af4002000000020430000757200007265000071
:104b04006e740000205700006569000067680000ab
:104b14007420000000200000204900004e500000d6
:104b240055540000204c00004f470000494300004a
:104b34002020000020000000202000002049000068
:104b44004e50000055540000202d0000203100007c
:104b54002020000020200000202000002049000028
:104b64004e50000055540000202d0000203200005b
:104b7400202000002020000000200000494e0000fa
:104b840050550000542000002d200000312000006a
:104b94004c4f00004749000043000000204900003a
:104ba4004e50000055540000202d0000203200001b
:104bb400204c00004f470000494300000020000043
:104bc40020200000202000002020000020200000e1
:104bd40020200000202000004c6f0000770000001f
:104be40020200000202000002020000020200000c1
:104bf40020200000202000004869000067680000b1
:104c04000020000020200000202000005641000069
:104c14004c5500004520000045520000524f000052
:104c240052000000253400006c64000000280000dd
:104c340073650000632900000020000020200000ac
:104c4400202000002020000020200000202500005b
:104c5400366c0000640000004b6700000020000078
:104c6400540000002020000020200000202000002c
:104c740020200000202000002536000075000000e0
:104c8400204500004e540000455200002050000012
:104c940041530000535700004f52000044200000cd
:104ca40000200000202000002020000020450000fb
:104cb400525200004f52000020200000202000002b
:104cc4002000000020200000204200006175000048
:104cd400643a00002031000032300000302000002f
:104ce400202000000020000020200000426100007d
:104cf400756400003a2000003234000030300000b7
:104d0400202000002000000020200000204200009d
:104d140061750000643a000020390000363000005c
:104d2400302000002020000000200000202000008f
:104d340042610000756400003a200000313900002f
:104d4400323000003020000020000000202000004d
:104d54002042000061750000643a00002033000026
:104d64003834000030300000202000000020000013
:104d74002020000042610000756400003a20000019
:104d840035370000363000003020000020000000dd
:104d9400202000002042000061750000643a0000f9
:104da4002031000031350000323000003020000096
:104db4000043000068650000636b000020420000af
:104dc40061750000642000005261000074650000f9
:104dd40020000000202000005374000061740000d3
:104de400757300003a200000504100005353000046
:104df4002020000000200000205300007461000007
:104e040074750000733a0000204600004149000018
:104e14004c200000200000004172000065200000ca
:104e2400796f000075200000737500007265000042
:104e3400207400006f20000000200000204c0000bf
:104e44006f6100006420000064650000666100007a
:104e5400756c0000743f00002000000054610000e5
:104e64006b65000020430000616c000020420000dc
:104e7400616300006b750000703f000000200000bb
:104e84005265000073200000436100006c200000a4
:104e940042610000636b0000757000003f00000079
:104ea400546100006b650000205600006f6c000028
:104eb40074420000616300006b750000703f0000e5
:104ec400002000005265000073200000566f0000af
:104ed4006c74000042610000636b00007570000098
:104ee4003f000000204900006e69000074200000ab
:104ef400476500006e2000005365000074740000d4
:104f0400203f0000004900006e690000742000008a
:104f1400566f00006c74000020760000616c000085
:104f2400756500003f000000204900006e69000024
:104f340074200000417000007020000053650000e0
:104f440074740000203f000000200000506c00003a
:104f5400656100007365000020570000616900006e
:104f6400742e00002e2e00002000000020200000df
:104f7400204300006f6d0000706c00006574000039
:104f840065640000202000002020000000200000b4
:104f9400202000002020000020200000202000000d
:104fa400202000002020000044690000730000005d
:104fb40020200000202000002020000020200000ed
:104fc4002020000020200000204500006e62000028
:104fd400002a000020200000204300004841000077
:104fe4004e4e0000454c00002031000020200000ff
:104ff4002a0000002a20000020200000434800006e
:10500400414e00004e4500004c20000032200000bc
:10501400202a0000002a0000202000002043000075
:10502400484100004e4e0000454c00002033000073
:10503400202000002a0000002a2000002020000078
:1050440043480000414e00004e4500004c20000043
:1050540034200000202a0000002a00002020000044
:1050640020430000484100004e4e0000454c000023
:1050740020350000202000002a0000002a20000023
:105084002020000043480000414e00004e4500002f
:105094004c20000036200000202a0000004d0000b3
:1050a4006f620000696c0000652000004e6f000014
:1050b400203a000020250000303200006400000087
:1050c40020200000202d00002020000020200000cf
:1050d40020200000202000002020000020200000cc
:1050e40000200000506c0000656100007365000042
:1050f4002077000061690000742e00002e2e00004d
:10510400200000005b4d0000524400002a250000ee
:1051140030320000642a0000002500003032000014
:10512400640000005b4d0000575200002a25000077
:1051340030320000642a00000025000030320000f4
:10514400750000004d570000522000004f4b000036
:10515400002000002020000053650000742000009f
:105164005375000063630000657300007320000042
:10517400200000002020000020530000657400007f
:1051840020460000616900006c6500006420000096
:1051940020200000000000004255000046310000bd
:1051a4004f4b00000020000020200000205300008e
:1051b4004d530000204100004c45000052540000b3
:1051c4002020000020000000202000005365000083
:1051d4006e7400002020000053750000636300001b
:1051e4006573000073200000004200005546000073
:1051f400324f00004b0000004255000046330000cf
:105204004f4b0000004d00005244000000200000fd
:10521400454e00005445000052200000504100005b
:1052240053530000574f0000524400002000000078
:1052340020200000202000002052000045530000e0
:105244004554000020200000202000002020000001
:105254000020000052650000616300006820000027
:1052640053740000616300006b650000722000004d
:10527400200000002a0000002530000035640000f2
:105284000020000000310000315300007973000059
:10529400746500006d200000416c00006572000020
:1052a400743a000000250000303200006c750000e4
:1052b4000d0a0000004500006e670000696e0000e2
:1052c400652d0000495000003a480000494700009d
:1052d400480d00000a00000050610000726b0000dd
:1052e400696e0000672d0000495000003a4c000030
:1052f4004f570000200d00000a000000506100001c
:10530400726b0000696e0000672d000049500000b8
:105314003a48000049470000480d00000a00000018
:10532400434800002d3100003a250000346c000091
:10533400640d00000a000000434800002d32000004
:105344003a250000346c0000640d00000a000000df
:10535400434800002d3300003a250000346c00005f
:10536400640d00000a000000434800002d340000d2
:105374003a250000346c0000640d00000a000000af
:10538400434800002d3500003a250000346c00002d
:10539400640d00000a000000434800002d360000a0
:1053a4003a250000346c0000640d00000a0000007f
:1053b4002020000020000000456e00006769000006
:1053c4006e650000495000003a4c00004f57000041
:1053d4000d0a000000500000617200006b690000bb
:1053e4006e670000495000003a4c00004f5700001f
:1053f400200d00000a00000050610000726b0000e4
:10540400696e000067490000503a000048490000f6
:10541400474800000d0a0000004300004831000026
:105424003a250000346c0000640d00000a000000fe
:1054340043480000323a0000253400006c64000048
:105444000d0a000000430000483300003a25000024
:10545400346c0000640d00000a00000043480000a2
:10546400343a0000253400006c6400000d0a00008a
:1054740000430000483500003a250000346c000069
:10548400640d00000a00000043480000363a0000a2
:10549400253400006c6400000d0a00000052000076
:1054a400543a000025300000326400003a25000020
:1054b40030320000643a00002530000032640000fd
:1054c40020000000456e0000676900006e65000062
:1054d4002d490000503a00004c4f000057200000b6
:1054e4000d0a0000002500003032000064000000b6
:1054f4005b0000005d00000020200000205400003c
:1055040072790000207400006f20000053650000d1
:105514006e7400002020000000250000642a0000b2
:1055240000250000303200006c75000000250000ea
:10553400303400006c64000000250000346c00006e
:105544006420000000250000346c000064000000aa
:10555400253000003275000025300000327500004f
:1055640025300000347500000025000030320000b2
:10557400752500003032000075250000303200002f
:10558400750000002530000034750000002500007f
:10559400303500007500000025300000356c000037
:1055a4007500000025000000240000004d6100008b
:1055b400782000004361000070610000636900000e
:1055c400747900003a00000025300000356c0000ba
:1055d400640000002020000052650000736f00008a
:1055e4006c750000746900006f6e00003a000000e2
:1055f40025640000002000002044000065630000d2
:10560400696d0000616c000020500000743a0000d5
:1056140000200000202000002020000020200000a6
:10562400205500006e690000743a0000004b000031
:1056340067000000205400000020000043480000e0
:105644002e4e00006f2e00002020000020200000bd
:10565400436100006c5a0000657200006f20000076
:105664002020000020430000616c00005a65000007
:10567400726f000031200000202000002043000051
:10568400616c000053700000616e00002020000077
:1056940020430000616c0000436100007061000061
:1056a40063690000747900000020000020200000dd
:1056b400256400002020000020200000202000009d
:1056c40020200000253400006c640000202000002d
:1056d40020200000202000002020000025340000ad
:1056e4006c64000000200000202000002020000046
:1056f4002020000020250000346c000064200000fd
:10570400202000002020000020250000356c00002f
:105714006420000020000000202000002020000061
:105724002020000020200000253400006c640000cc
:105734002020000020200000202000002530000050
:10574400356c0000642000002020000020000000d0
:10575400437500006d200000436e0000743a0000a1
:10576400202000002536000064000000437500007e
:105774006d2000004c640000203a0000202000004e
:105784002020000020200000202000002020000015
:105794002020000020000000313a00000032000008
:1057a4003a000000333a0000003400003a000000e0
:1057b400353a0000003600003a00000020200000c6
:1057c40043680000616e00006e6500006c200000fc
:1057d400566f00006c74000020200000004400009c
:1057e40041540000452000003a2000002020000021
:1057f40020200000202000002020000020000000c5
:1058040025300000327500002f25000030320000e2
:10581400752f0000253000003264000000540000a1
:10582400494d0000452000003a20000020200000df
:105834002020000020200000202000002000000084
:1058440025300000327500003a2500003032000097
:10585400753a000025300000327500000020000079
:1058640020430000484100004e4e0000454c00001b
:1058740020450000525200004f520000200000005a
:105884002563000020200000256300002020000084
:105894002563000020200000256300002020000074
:1058a400256300002020000025630000005800004c
:1058b4003a0000004f5200002020000020000000a9
:1058c400555200002020000020000000593a00003a
:1058d400004f00005220000020000000555200003c
:1058e4002020000000250000303400006c6400001b
:1058f40020000000256400003a250000643a0000fe
:10590400256400000020000052450000434f0000c1
:1059140052440000204f000056450000524600004b
:105924004c4f0000570000002020000054410000ac
:105934004b45000020520000455000004f5200002b
:10594400545300002020000000200000202000000c
:105954002020000020200000464900005845000097
:1059640044200000424f000044590000205400002d
:1059740052550000434b00002057000045490000e9
:1059840047480000494e0000472000002020000046
:105994002020000020200000200000002020000023
:1059a40044610000746500003a20000025300000c6
:1059b400327500002f25000030320000752f0000e2
:1059c4002534000064000000202000002020000096
:1059d4002020000000540000696d0000653a0000ba
:1059e4002025000030320000753a00002530000008
:1059f400327500003a2500003032000075200000a6
:105a04002000000020200000205300004e4f000022
:105a14002020000020200000204400004154000009
:105a24004520000020200000202000002054000019
:105a3400494d0000452000002020000020200000e7
:105a4400542e000057740000285400002920000040
:105a54002020000000250000346400000025000020
:105a640030320000752f0000253000003275000030
:105a74002f250000346400000025000030320000af
:105a8400753a000025300000327500000020000047
:105a94002000000025300000366c00006400000087
:105aa4002a20000020200000200000002020000008
:105ab40020200000200000002026000020540000c8
:105ac4007269000070200000436f0000756e0000d2
:105ad400742000003f20000000200000436c000000
:105ae4006561000072200000437500006d20000015
:105af400766100006c750000650000002050000015
:105b04006c6500006173000065200000776100008f
:105b1400697400002e2e00002e20000000200000da
:105b24002020000020200000284d0000454e0000e9
:105b34005529000020200000202000002000000043
:105b44002020000020200000202000004d450000ff
:105b54004e550000202000002020000020200000de
:105b64000020000020200000566f00006c7400002c
:105b740020430000616c00006962000020200000e6
:105b84002020000020200000204c00006f6700004f
:105b94006963000020530000656c000020200000b1
:105ba4002000000020200000204c00004f4700008f
:105bb40049430000202d0000203100002020000077
:105bc4002020000020200000204c00004f4700004f
:105bd40049430000202d0000203200002020000056
:105be40020200000004c00004f4700004943000003
:105bf4002d25000064200000536500006c65000042
:105c04006374000065640000002000002020000090
:105c14002020000020200000202000002020000080
:105c24002020000020200000200000002020000090
:105c340020200000202000005441000052450000b4
